{
  "_format": "hh-sol-artifact-1",
  "contractName": "EpheSafe",
  "sourceName": "contracts/EpheSafe.sol",
  "abi": [
    {
      "inputs": [],
      "stateMutability": "nonpayable",
      "type": "constructor"
    },
    {
      "inputs": [],
      "name": "AccessControlBadConfirmation",
      "type": "error"
    },
    {
      "inputs": [
        {
          "internalType": "address",
          "name": "account",
          "type": "address"
        },
        {
          "internalType": "bytes32",
          "name": "neededRole",
          "type": "bytes32"
        }
      ],
      "name": "AccessControlUnauthorizedAccount",
      "type": "error"
    },
    {
      "inputs": [
        {
          "internalType": "address",
          "name": "target",
          "type": "address"
        }
      ],
      "name": "AddressEmptyCode",
      "type": "error"
    },
    {
      "inputs": [
        {
          "internalType": "address",
          "name": "implementation",
          "type": "address"
        }
      ],
      "name": "ERC1967InvalidImplementation",
      "type": "error"
    },
    {
      "inputs": [],
      "name": "ERC1967NonPayable",
      "type": "error"
    },
    {
      "inputs": [],
      "name": "ERC721EnumerableForbiddenBatchMint",
      "type": "error"
    },
    {
      "inputs": [
        {
          "internalType": "address",
          "name": "sender",
          "type": "address"
        },
        {
          "internalType": "uint256",
          "name": "tokenId",
          "type": "uint256"
        },
        {
          "internalType": "address",
          "name": "owner",
          "type": "address"
        }
      ],
      "name": "ERC721IncorrectOwner",
      "type": "error"
    },
    {
      "inputs": [
        {
          "internalType": "address",
          "name": "operator",
          "type": "address"
        },
        {
          "internalType": "uint256",
          "name": "tokenId",
          "type": "uint256"
        }
      ],
      "name": "ERC721InsufficientApproval",
      "type": "error"
    },
    {
      "inputs": [
        {
          "internalType": "address",
          "name": "approver",
          "type": "address"
        }
      ],
      "name": "ERC721InvalidApprover",
      "type": "error"
    },
    {
      "inputs": [
        {
          "internalType": "address",
          "name": "operator",
          "type": "address"
        }
      ],
      "name": "ERC721InvalidOperator",
      "type": "error"
    },
    {
      "inputs": [
        {
          "internalType": "address",
          "name": "owner",
          "type": "address"
        }
      ],
      "name": "ERC721InvalidOwner",
      "type": "error"
    },
    {
      "inputs": [
        {
          "internalType": "address",
          "name": "receiver",
          "type": "address"
        }
      ],
      "name": "ERC721InvalidReceiver",
      "type": "error"
    },
    {
      "inputs": [
        {
          "internalType": "address",
          "name": "sender",
          "type": "address"
        }
      ],
      "name": "ERC721InvalidSender",
      "type": "error"
    },
    {
      "inputs": [
        {
          "internalType": "uint256",
          "name": "tokenId",
          "type": "uint256"
        }
      ],
      "name": "ERC721NonexistentToken",
      "type": "error"
    },
    {
      "inputs": [
        {
          "internalType": "address",
          "name": "owner",
          "type": "address"
        },
        {
          "internalType": "uint256",
          "name": "index",
          "type": "uint256"
        }
      ],
      "name": "ERC721OutOfBoundsIndex",
      "type": "error"
    },
    {
      "inputs": [],
      "name": "EnforcedPause",
      "type": "error"
    },
    {
      "inputs": [],
      "name": "ExpectedPause",
      "type": "error"
    },
    {
      "inputs": [],
      "name": "FailedInnerCall",
      "type": "error"
    },
    {
      "inputs": [
        {
          "internalType": "uint256",
          "name": "requiredValue",
          "type": "uint256"
        },
        {
          "internalType": "uint256",
          "name": "passedValue",
          "type": "uint256"
        }
      ],
      "name": "InsufficientMsgValue",
      "type": "error"
    },
    {
      "inputs": [],
      "name": "InvalidInitialization",
      "type": "error"
    },
    {
      "inputs": [],
      "name": "NotInitializing",
      "type": "error"
    },
    {
      "inputs": [],
      "name": "UUPSUnauthorizedCallContext",
      "type": "error"
    },
    {
      "inputs": [
        {
          "internalType": "bytes32",
          "name": "slot",
          "type": "bytes32"
        }
      ],
      "name": "UUPSUnsupportedProxiableUUID",
      "type": "error"
    },
    {
      "anonymous": false,
      "inputs": [
        {
          "indexed": true,
          "internalType": "address",
          "name": "owner",
          "type": "address"
        },
        {
          "indexed": true,
          "internalType": "address",
          "name": "approved",
          "type": "address"
        },
        {
          "indexed": true,
          "internalType": "uint256",
          "name": "tokenId",
          "type": "uint256"
        }
      ],
      "name": "Approval",
      "type": "event"
    },
    {
      "anonymous": false,
      "inputs": [
        {
          "indexed": true,
          "internalType": "address",
          "name": "owner",
          "type": "address"
        },
        {
          "indexed": true,
          "internalType": "address",
          "name": "operator",
          "type": "address"
        },
        {
          "indexed": false,
          "internalType": "bool",
          "name": "approved",
          "type": "bool"
        }
      ],
      "name": "ApprovalForAll",
      "type": "event"
    },
    {
      "anonymous": false,
      "inputs": [
        {
          "indexed": true,
          "internalType": "address",
          "name": "approver",
          "type": "address"
        },
        {
          "indexed": false,
          "internalType": "uint256",
          "name": "tokenId",
          "type": "uint256"
        }
      ],
      "name": "EmergencyUnlockApproved",
      "type": "event"
    },
    {
      "anonymous": false,
      "inputs": [
        {
          "indexed": true,
          "internalType": "address",
          "name": "executor",
          "type": "address"
        },
        {
          "indexed": false,
          "internalType": "uint256",
          "name": "tokenId",
          "type": "uint256"
        },
        {
          "indexed": false,
          "internalType": "uint256",
          "name": "safeAmount",
          "type": "uint256"
        },
        {
          "indexed": false,
          "internalType": "address",
          "name": "safeTokenAddress",
          "type": "address"
        },
        {
          "indexed": false,
          "internalType": "address",
          "name": "recipient",
          "type": "address"
        }
      ],
      "name": "EmergencyUnlockExecuted",
      "type": "event"
    },
    {
      "anonymous": false,
      "inputs": [
        {
          "indexed": false,
          "internalType": "uint64",
          "name": "version",
          "type": "uint64"
        }
      ],
      "name": "Initialized",
      "type": "event"
    },
    {
      "anonymous": false,
      "inputs": [
        {
          "indexed": false,
          "internalType": "uint256",
          "name": "_tokenId",
          "type": "uint256"
        }
      ],
      "name": "MetadataUpdate",
      "type": "event"
    },
    {
      "anonymous": false,
      "inputs": [
        {
          "indexed": false,
          "internalType": "address",
          "name": "account",
          "type": "address"
        }
      ],
      "name": "Paused",
      "type": "event"
    },
    {
      "anonymous": false,
      "inputs": [
        {
          "indexed": true,
          "internalType": "bytes32",
          "name": "role",
          "type": "bytes32"
        },
        {
          "indexed": true,
          "internalType": "bytes32",
          "name": "previousAdminRole",
          "type": "bytes32"
        },
        {
          "indexed": true,
          "internalType": "bytes32",
          "name": "newAdminRole",
          "type": "bytes32"
        }
      ],
      "name": "RoleAdminChanged",
      "type": "event"
    },
    {
      "anonymous": false,
      "inputs": [
        {
          "indexed": true,
          "internalType": "bytes32",
          "name": "role",
          "type": "bytes32"
        },
        {
          "indexed": true,
          "internalType": "address",
          "name": "account",
          "type": "address"
        },
        {
          "indexed": true,
          "internalType": "address",
          "name": "sender",
          "type": "address"
        }
      ],
      "name": "RoleGranted",
      "type": "event"
    },
    {
      "anonymous": false,
      "inputs": [
        {
          "indexed": true,
          "internalType": "bytes32",
          "name": "role",
          "type": "bytes32"
        },
        {
          "indexed": true,
          "internalType": "address",
          "name": "account",
          "type": "address"
        },
        {
          "indexed": true,
          "internalType": "address",
          "name": "sender",
          "type": "address"
        }
      ],
      "name": "RoleRevoked",
      "type": "event"
    },
    {
      "anonymous": false,
      "inputs": [
        {
          "indexed": true,
          "internalType": "address",
          "name": "claimAddress",
          "type": "address"
        },
        {
          "indexed": false,
          "internalType": "uint256",
          "name": "tokenId",
          "type": "uint256"
        },
        {
          "indexed": false,
          "internalType": "uint256",
          "name": "safeAmount",
          "type": "uint256"
        },
        {
          "indexed": false,
          "internalType": "address",
          "name": "safeTokenAddress",
          "type": "address"
        },
        {
          "indexed": false,
          "internalType": "string",
          "name": "safeMetadata",
          "type": "string"
        }
      ],
      "name": "SafeClaimed",
      "type": "event"
    },
    {
      "anonymous": false,
      "inputs": [
        {
          "indexed": true,
          "internalType": "address",
          "name": "destroyer",
          "type": "address"
        },
        {
          "indexed": true,
          "internalType": "uint256",
          "name": "tokenId",
          "type": "uint256"
        },
        {
          "indexed": false,
          "internalType": "uint256",
          "name": "safeAmount",
          "type": "uint256"
        },
        {
          "indexed": false,
          "internalType": "address",
          "name": "safeTokenAddress",
          "type": "address"
        },
        {
          "indexed": false,
          "internalType": "uint256",
          "name": "destroyReward",
          "type": "uint256"
        }
      ],
      "name": "SafeDestroyed",
      "type": "event"
    },
    {
      "anonymous": false,
      "inputs": [
        {
          "indexed": true,
          "internalType": "address",
          "name": "from",
          "type": "address"
        },
        {
          "indexed": true,
          "internalType": "address",
          "name": "to",
          "type": "address"
        },
        {
          "indexed": false,
          "internalType": "uint256",
          "name": "tokenId",
          "type": "uint256"
        },
        {
          "indexed": true,
          "internalType": "uint256",
          "name": "expiry",
          "type": "uint256"
        },
        {
          "indexed": false,
          "internalType": "uint256",
          "name": "safeAmount",
          "type": "uint256"
        },
        {
          "indexed": false,
          "internalType": "address",
          "name": "safeTokenAddress",
          "type": "address"
        },
        {
          "indexed": false,
          "internalType": "string",
          "name": "safeMetadata",
          "type": "string"
        }
      ],
      "name": "SafeMinted",
      "type": "event"
    },
    {
      "anonymous": false,
      "inputs": [
        {
          "indexed": true,
          "internalType": "address",
          "name": "from",
          "type": "address"
        },
        {
          "indexed": true,
          "internalType": "address",
          "name": "to",
          "type": "address"
        },
        {
          "indexed": true,
          "internalType": "uint256",
          "name": "tokenId",
          "type": "uint256"
        }
      ],
      "name": "Transfer",
      "type": "event"
    },
    {
      "anonymous": false,
      "inputs": [
        {
          "indexed": false,
          "internalType": "address",
          "name": "account",
          "type": "address"
        }
      ],
      "name": "Unpaused",
      "type": "event"
    },
    {
      "anonymous": false,
      "inputs": [
        {
          "indexed": true,
          "internalType": "address",
          "name": "implementation",
          "type": "address"
        }
      ],
      "name": "Upgraded",
      "type": "event"
    },
    {
      "inputs": [],
      "name": "ADMIN_ROLE",
      "outputs": [
        {
          "internalType": "bytes32",
          "name": "",
          "type": "bytes32"
        }
      ],
      "stateMutability": "view",
      "type": "function"
    },
    {
      "inputs": [],
      "name": "DEFAULT_ADMIN_ROLE",
      "outputs": [
        {
          "internalType": "bytes32",
          "name": "",
          "type": "bytes32"
        }
      ],
      "stateMutability": "view",
      "type": "function"
    },
    {
      "inputs": [],
      "name": "MINTER_ROLE",
      "outputs": [
        {
          "internalType": "bytes32",
          "name": "",
          "type": "bytes32"
        }
      ],
      "stateMutability": "view",
      "type": "function"
    },
    {
      "inputs": [],
      "name": "PAUSER_ROLE",
      "outputs": [
        {
          "internalType": "bytes32",
          "name": "",
          "type": "bytes32"
        }
      ],
      "stateMutability": "view",
      "type": "function"
    },
    {
      "inputs": [],
      "name": "UPGRADER_ROLE",
      "outputs": [
        {
          "internalType": "bytes32",
          "name": "",
          "type": "bytes32"
        }
      ],
      "stateMutability": "view",
      "type": "function"
    },
    {
      "inputs": [],
      "name": "UPGRADE_INTERFACE_VERSION",
      "outputs": [
        {
          "internalType": "string",
          "name": "",
          "type": "string"
        }
      ],
      "stateMutability": "view",
      "type": "function"
    },
    {
      "inputs": [],
      "name": "_nextTokenId",
      "outputs": [
        {
          "internalType": "uint256",
          "name": "",
          "type": "uint256"
        }
      ],
      "stateMutability": "view",
      "type": "function"
    },
    {
      "inputs": [
        {
          "internalType": "address",
          "name": "authorizer",
          "type": "address"
        },
        {
          "internalType": "uint256",
          "name": "tokenId",
          "type": "uint256"
        }
      ],
      "name": "addMultiSafeAuthorizer",
      "outputs": [],
      "stateMutability": "nonpayable",
      "type": "function"
    },
    {
      "inputs": [
        {
          "internalType": "address",
          "name": "to",
          "type": "address"
        },
        {
          "internalType": "uint256",
          "name": "tokenId",
          "type": "uint256"
        }
      ],
      "name": "approve",
      "outputs": [],
      "stateMutability": "nonpayable",
      "type": "function"
    },
    {
      "inputs": [
        {
          "internalType": "uint256",
          "name": "tokenId",
          "type": "uint256"
        },
        {
          "internalType": "address",
          "name": "recipient",
          "type": "address"
        }
      ],
      "name": "approveOrExecuteEmergencyUnlock",
      "outputs": [],
      "stateMutability": "nonpayable",
      "type": "function"
    },
    {
      "inputs": [
        {
          "internalType": "address",
          "name": "owner",
          "type": "address"
        }
      ],
      "name": "balanceOf",
      "outputs": [
        {
          "internalType": "uint256",
          "name": "",
          "type": "uint256"
        }
      ],
      "stateMutability": "view",
      "type": "function"
    },
    {
      "inputs": [
        {
          "internalType": "uint256",
          "name": "tokenId",
          "type": "uint256"
        }
      ],
      "name": "burn",
      "outputs": [],
      "stateMutability": "nonpayable",
      "type": "function"
    },
    {
      "inputs": [
        {
          "internalType": "uint256",
          "name": "tokenId",
          "type": "uint256"
        }
      ],
      "name": "claimSafe",
      "outputs": [],
      "stateMutability": "nonpayable",
      "type": "function"
    },
    {
      "inputs": [
        {
          "internalType": "uint256",
          "name": "tokenId",
          "type": "uint256"
        },
        {
          "internalType": "address",
          "name": "claimAddress",
          "type": "address"
        }
      ],
      "name": "claimSafeAtAddress",
      "outputs": [],
      "stateMutability": "nonpayable",
      "type": "function"
    },
    {
      "inputs": [
        {
          "internalType": "uint256",
          "name": "",
          "type": "uint256"
        }
      ],
      "name": "emergencyUnlockState",
      "outputs": [
        {
          "internalType": "enum EpheSafe.EmergencyUnlockStatus",
          "name": "status",
          "type": "uint8"
        },
        {
          "internalType": "uint256",
          "name": "approvalCount",
          "type": "uint256"
        }
      ],
      "stateMutability": "view",
      "type": "function"
    },
    {
      "inputs": [
        {
          "internalType": "address",
          "name": "owner",
          "type": "address"
        }
      ],
      "name": "getAllMultiSafeAuthorityTokens",
      "outputs": [
        {
          "internalType": "uint256[]",
          "name": "",
          "type": "uint256[]"
        }
      ],
      "stateMutability": "view",
      "type": "function"
    },
    {
      "inputs": [],
      "name": "getAllSafes",
      "outputs": [
        {
          "internalType": "uint256[]",
          "name": "",
          "type": "uint256[]"
        }
      ],
      "stateMutability": "view",
      "type": "function"
    },
    {
      "inputs": [
        {
          "internalType": "address",
          "name": "owner",
          "type": "address"
        }
      ],
      "name": "getAllSafesOfOwner",
      "outputs": [
        {
          "internalType": "uint256[]",
          "name": "",
          "type": "uint256[]"
        }
      ],
      "stateMutability": "view",
      "type": "function"
    },
    {
      "inputs": [
        {
          "internalType": "uint256",
          "name": "tokenId",
          "type": "uint256"
        }
      ],
      "name": "getApproved",
      "outputs": [
        {
          "internalType": "address",
          "name": "",
          "type": "address"
        }
      ],
      "stateMutability": "view",
      "type": "function"
    },
    {
      "inputs": [
        {
          "internalType": "address",
          "name": "issuer",
          "type": "address"
        }
      ],
      "name": "getIssuedSafes",
      "outputs": [
        {
          "internalType": "uint256[]",
          "name": "",
          "type": "uint256[]"
        }
      ],
      "stateMutability": "view",
      "type": "function"
    },
    {
      "inputs": [
        {
          "internalType": "bytes32",
          "name": "role",
          "type": "bytes32"
        }
      ],
      "name": "getRoleAdmin",
      "outputs": [
        {
          "internalType": "bytes32",
          "name": "",
          "type": "bytes32"
        }
      ],
      "stateMutability": "view",
      "type": "function"
    },
    {
      "inputs": [
        {
          "internalType": "uint256",
          "name": "tokenId",
          "type": "uint256"
        }
      ],
      "name": "getSafeInfo",
      "outputs": [
        {
          "components": [
            {
              "internalType": "uint256",
              "name": "expiry",
              "type": "uint256"
            },
            {
              "internalType": "uint256",
              "name": "amount",
              "type": "uint256"
            },
            {
              "internalType": "address",
              "name": "tokenAddress",
              "type": "address"
            },
            {
              "internalType": "enum EpheSafe.SafeStatus",
              "name": "status",
              "type": "uint8"
            },
            {
              "internalType": "address[]",
              "name": "multiSafeAddresses",
              "type": "address[]"
            },
            {
              "internalType": "string",
              "name": "safeMetadata",
              "type": "string"
            },
            {
              "internalType": "uint256",
              "name": "noOfApprovalsRequired",
              "type": "uint256"
            }
          ],
          "internalType": "struct EpheSafe.SafeInfo",
          "name": "safeData",
          "type": "tuple"
        },
        {
          "internalType": "string",
          "name": "tokenUri",
          "type": "string"
        },
        {
          "internalType": "address[]",
          "name": "unlockAddresses",
          "type": "address[]"
        }
      ],
      "stateMutability": "view",
      "type": "function"
    },
    {
      "inputs": [
        {
          "internalType": "bytes32",
          "name": "role",
          "type": "bytes32"
        },
        {
          "internalType": "address",
          "name": "account",
          "type": "address"
        }
      ],
      "name": "grantRole",
      "outputs": [],
      "stateMutability": "nonpayable",
      "type": "function"
    },
    {
      "inputs": [
        {
          "internalType": "bytes32",
          "name": "role",
          "type": "bytes32"
        },
        {
          "internalType": "address",
          "name": "account",
          "type": "address"
        }
      ],
      "name": "hasRole",
      "outputs": [
        {
          "internalType": "bool",
          "name": "",
          "type": "bool"
        }
      ],
      "stateMutability": "view",
      "type": "function"
    },
    {
      "inputs": [
        {
          "internalType": "address",
          "name": "_owner",
          "type": "address"
        },
        {
          "internalType": "address",
          "name": "minter",
          "type": "address"
        }
      ],
      "name": "initialize",
      "outputs": [],
      "stateMutability": "nonpayable",
      "type": "function"
    },
    {
      "inputs": [
        {
          "internalType": "address",
          "name": "owner",
          "type": "address"
        },
        {
          "internalType": "address",
          "name": "operator",
          "type": "address"
        }
      ],
      "name": "isApprovedForAll",
      "outputs": [
        {
          "internalType": "bool",
          "name": "",
          "type": "bool"
        }
      ],
      "stateMutability": "view",
      "type": "function"
    },
    {
      "inputs": [
        {
          "internalType": "address",
          "name": "to",
          "type": "address"
        },
        {
          "internalType": "string",
          "name": "uri",
          "type": "string"
        },
        {
          "internalType": "uint256",
          "name": "expiry",
          "type": "uint256"
        },
        {
          "internalType": "uint256",
          "name": "safeAmount",
          "type": "uint256"
        },
        {
          "internalType": "address",
          "name": "safeTokenAddress",
          "type": "address"
        },
        {
          "internalType": "address[]",
          "name": "safeAddresses",
          "type": "address[]"
        },
        {
          "internalType": "string",
          "name": "safeMetadata",
          "type": "string"
        },
        {
          "internalType": "uint256",
          "name": "noOfApprovalsRequired",
          "type": "uint256"
        }
      ],
      "name": "mintSafe",
      "outputs": [],
      "stateMutability": "payable",
      "type": "function"
    },
    {
      "inputs": [
        {
          "internalType": "address",
          "name": "",
          "type": "address"
        },
        {
          "internalType": "uint256",
          "name": "",
          "type": "uint256"
        }
      ],
      "name": "multiSafeAuthorizers",
      "outputs": [
        {
          "internalType": "uint256",
          "name": "",
          "type": "uint256"
        }
      ],
      "stateMutability": "view",
      "type": "function"
    },
    {
      "inputs": [],
      "name": "name",
      "outputs": [
        {
          "internalType": "string",
          "name": "",
          "type": "string"
        }
      ],
      "stateMutability": "view",
      "type": "function"
    },
    {
      "inputs": [
        {
          "internalType": "uint256",
          "name": "tokenId",
          "type": "uint256"
        }
      ],
      "name": "ownerOf",
      "outputs": [
        {
          "internalType": "address",
          "name": "",
          "type": "address"
        }
      ],
      "stateMutability": "view",
      "type": "function"
    },
    {
      "inputs": [],
      "name": "pause",
      "outputs": [],
      "stateMutability": "nonpayable",
      "type": "function"
    },
    {
      "inputs": [],
      "name": "paused",
      "outputs": [
        {
          "internalType": "bool",
          "name": "",
          "type": "bool"
        }
      ],
      "stateMutability": "view",
      "type": "function"
    },
    {
      "inputs": [],
      "name": "proxiableUUID",
      "outputs": [
        {
          "internalType": "bytes32",
          "name": "",
          "type": "bytes32"
        }
      ],
      "stateMutability": "view",
      "type": "function"
    },
    {
      "inputs": [
        {
          "internalType": "bytes32",
          "name": "role",
          "type": "bytes32"
        },
        {
          "internalType": "address",
          "name": "callerConfirmation",
          "type": "address"
        }
      ],
      "name": "renounceRole",
      "outputs": [],
      "stateMutability": "nonpayable",
      "type": "function"
    },
    {
      "inputs": [
        {
          "internalType": "bytes32",
          "name": "role",
          "type": "bytes32"
        },
        {
          "internalType": "address",
          "name": "account",
          "type": "address"
        }
      ],
      "name": "revokeRole",
      "outputs": [],
      "stateMutability": "nonpayable",
      "type": "function"
    },
    {
      "inputs": [
        {
          "internalType": "uint256",
          "name": "",
          "type": "uint256"
        }
      ],
      "name": "safeInfo",
      "outputs": [
        {
          "internalType": "uint256",
          "name": "expiry",
          "type": "uint256"
        },
        {
          "internalType": "uint256",
          "name": "amount",
          "type": "uint256"
        },
        {
          "internalType": "address",
          "name": "tokenAddress",
          "type": "address"
        },
        {
          "internalType": "enum EpheSafe.SafeStatus",
          "name": "status",
          "type": "uint8"
        },
        {
          "internalType": "string",
          "name": "safeMetadata",
          "type": "string"
        },
        {
          "internalType": "uint256",
          "name": "noOfApprovalsRequired",
          "type": "uint256"
        }
      ],
      "stateMutability": "view",
      "type": "function"
    },
    {
      "inputs": [
        {
          "internalType": "address",
          "name": "",
          "type": "address"
        },
        {
          "internalType": "uint256",
          "name": "",
          "type": "uint256"
        }
      ],
      "name": "safeIssuers",
      "outputs": [
        {
          "internalType": "uint256",
          "name": "",
          "type": "uint256"
        }
      ],
      "stateMutability": "view",
      "type": "function"
    },
    {
      "inputs": [
        {
          "internalType": "address",
          "name": "from",
          "type": "address"
        },
        {
          "internalType": "address",
          "name": "to",
          "type": "address"
        },
        {
          "internalType": "uint256",
          "name": "tokenId",
          "type": "uint256"
        }
      ],
      "name": "safeTransferFrom",
      "outputs": [],
      "stateMutability": "nonpayable",
      "type": "function"
    },
    {
      "inputs": [
        {
          "internalType": "address",
          "name": "from",
          "type": "address"
        },
        {
          "internalType": "address",
          "name": "to",
          "type": "address"
        },
        {
          "internalType": "uint256",
          "name": "tokenId",
          "type": "uint256"
        },
        {
          "internalType": "bytes",
          "name": "data",
          "type": "bytes"
        }
      ],
      "name": "safeTransferFrom",
      "outputs": [],
      "stateMutability": "nonpayable",
      "type": "function"
    },
    {
      "inputs": [
        {
          "internalType": "address",
          "name": "operator",
          "type": "address"
        },
        {
          "internalType": "bool",
          "name": "approved",
          "type": "bool"
        }
      ],
      "name": "setApprovalForAll",
      "outputs": [],
      "stateMutability": "nonpayable",
      "type": "function"
    },
    {
      "inputs": [
        {
          "internalType": "bytes4",
          "name": "interfaceId",
          "type": "bytes4"
        }
      ],
      "name": "supportsInterface",
      "outputs": [
        {
          "internalType": "bool",
          "name": "",
          "type": "bool"
        }
      ],
      "stateMutability": "view",
      "type": "function"
    },
    {
      "inputs": [],
      "name": "symbol",
      "outputs": [
        {
          "internalType": "string",
          "name": "",
          "type": "string"
        }
      ],
      "stateMutability": "view",
      "type": "function"
    },
    {
      "inputs": [
        {
          "internalType": "uint256",
          "name": "index",
          "type": "uint256"
        }
      ],
      "name": "tokenByIndex",
      "outputs": [
        {
          "internalType": "uint256",
          "name": "",
          "type": "uint256"
        }
      ],
      "stateMutability": "view",
      "type": "function"
    },
    {
      "inputs": [
        {
          "internalType": "address",
          "name": "owner",
          "type": "address"
        },
        {
          "internalType": "uint256",
          "name": "index",
          "type": "uint256"
        }
      ],
      "name": "tokenOfOwnerByIndex",
      "outputs": [
        {
          "internalType": "uint256",
          "name": "",
          "type": "uint256"
        }
      ],
      "stateMutability": "view",
      "type": "function"
    },
    {
      "inputs": [
        {
          "internalType": "uint256",
          "name": "tokenId",
          "type": "uint256"
        }
      ],
      "name": "tokenURI",
      "outputs": [
        {
          "internalType": "string",
          "name": "",
          "type": "string"
        }
      ],
      "stateMutability": "view",
      "type": "function"
    },
    {
      "inputs": [],
      "name": "totalBurntSafes",
      "outputs": [
        {
          "internalType": "uint256",
          "name": "",
          "type": "uint256"
        }
      ],
      "stateMutability": "view",
      "type": "function"
    },
    {
      "inputs": [],
      "name": "totalClaimedSafes",
      "outputs": [
        {
          "internalType": "uint256",
          "name": "",
          "type": "uint256"
        }
      ],
      "stateMutability": "view",
      "type": "function"
    },
    {
      "inputs": [],
      "name": "totalSupply",
      "outputs": [
        {
          "internalType": "uint256",
          "name": "",
          "type": "uint256"
        }
      ],
      "stateMutability": "view",
      "type": "function"
    },
    {
      "inputs": [
        {
          "internalType": "address",
          "name": "from",
          "type": "address"
        },
        {
          "internalType": "address",
          "name": "to",
          "type": "address"
        },
        {
          "internalType": "uint256",
          "name": "tokenId",
          "type": "uint256"
        }
      ],
      "name": "transferFrom",
      "outputs": [],
      "stateMutability": "nonpayable",
      "type": "function"
    },
    {
      "inputs": [],
      "name": "unpause",
      "outputs": [],
      "stateMutability": "nonpayable",
      "type": "function"
    },
    {
      "inputs": [
        {
          "internalType": "address",
          "name": "issuer",
          "type": "address"
        },
        {
          "internalType": "uint256",
          "name": "tokenId",
          "type": "uint256"
        }
      ],
      "name": "updateTokenIssuer",
      "outputs": [],
      "stateMutability": "nonpayable",
      "type": "function"
    },
    {
      "inputs": [
        {
          "internalType": "uint256",
          "name": "tokenId",
          "type": "uint256"
        },
        {
          "internalType": "string",
          "name": "uri",
          "type": "string"
        }
      ],
      "name": "updateTokenUri",
      "outputs": [],
      "stateMutability": "nonpayable",
      "type": "function"
    },
    {
      "inputs": [
        {
          "internalType": "address",
          "name": "newImplementation",
          "type": "address"
        },
        {
          "internalType": "bytes",
          "name": "data",
          "type": "bytes"
        }
      ],
      "name": "upgradeToAndCall",
      "outputs": [],
      "stateMutability": "payable",
      "type": "function"
    }
  ],
  "bytecode": "0x60a08060405234620000d157306080527ff0c57e16840df040f15088dc2f81fe391c3923bec73e23a9662efc9c229c6a009081549060ff8260401c16620000c257506001600160401b036002600160401b0319828216016200007c575b6040516145339081620000d78239608051818181611bb90152611c800152f35b6001600160401b031990911681179091556040519081527fc7f505b2f371ae2175ee4913f4499e1f2633a7b5936321eed1cdaeb6115181d290602090a13880806200005c565b63f92ee8a960e01b8152600490fd5b600080fdfe608080604052600436101561001357600080fd5b60003560e01c90816301ffc9a714612e875750806304d1d88914612e265780630628665114612c6b57806306fdde0314612bb6578063081812fc14612b6b578063095ea7b314612a845780630c415ca9146129e757806318160ddd146129bc57806323b872dd146129a5578063248a9ca3146129695780632f2ff15d1461291d5780632f745c59146128f657806336568abe146128af5780633f4ba83a1461283857806340c856cb146127c0578063418af67e1461277657806342842e0e1461274857806342966c68146123c957806346c0c1c014612371578063485cc95514611ec65780634a60f62014611ea85780634f1ef28614611c415780634f6ccce714611c2357806352d1902d14611ba65780635c975abb14611b765780636352211e14611b4657806370a0823114611b1b57806375b238fc14611ae05780637776f2141461119457806381dc9114146111765780638456cb591461110f57806384e3a1df14610ec6578063899ac09714610e855780638af1272314610e675780638cbf46ae14610e025780638fa12c3e14610dc857806391d1485414610d6e57806395d89b4114610c7c578063a217fddf14610c60578063a22cb46514610bc0578063a893c82114610a28578063ad3cb1cc146109e2578063b87fee8914610541578063b88d4fde146104e8578063c87b56dd146104b5578063cfe3c33a1461047b578063d31af48414610440578063d539139314610405578063d547741f146103b7578063e63ab1e91461037c578063e985e9c51461032e578063f72c0d8b146102f35763fde5b1e61461026657600080fd5b346102ee576020806003193601126102ee576001600160a01b03610288612f26565b1660005260068152604060002090604051908181845491828152019360005281600020916000905b8282106102d7576102d3856102c7818903826130ee565b60405191829182612f52565b0390f35b8354865294850194600193840193909101906102b0565b600080fd5b346102ee5760003660031901126102ee5760206040517f189ab7a9244df0848122154315af71fe140f3db0fe014031783b0946b8c9d2e38152f35b346102ee5760403660031901126102ee57610347612f26565b610358610352612f3c565b91613164565b9060018060a01b0316600052602052602060ff604060002054166040519015158152f35b346102ee5760003660031901126102ee5760206040517f65d7a28e3265b37a6474929f336521b332c1681b933f6cb9f3376673440d862a8152f35b346102ee5760403660031901126102ee576104036004356103d6612f3c565b908060005260008051602061447e8339815191526020526103fe600160406000200154613359565b6135e9565b005b346102ee5760003660031901126102ee5760206040517f9f2df0fed2c77648de5860a4cc508cd0818c85b8b8a1ab4ceeef8d981c8956a68152f35b346102ee5760403660031901126102ee576024356001600160401b0381116102ee57610473610403913690600401613262565b600435614169565b346102ee5760403660031901126102ee576001600160a01b0361049c612f26565b1660005260076020526104036024356040600020613dd7565b346102ee5760203660031901126102ee576102d36104d4600435614131565b604051918291602083526020830190612f8d565b346102ee5760803660031901126102ee57610501612f26565b610509612f3c565b90604435606435926001600160401b0384116102ee57610530610403943690600401613262565b9261053c8383836136a1565b613a8e565b346102ee5760403660031901126102ee5761055a612f3c565b600435600052600260205260406000206003602052604060002090815461058360ff821661310f565b600260ff82161461099257600160ff600284015460a01c166105a48161310f565b0361094d576105b53360043561431d565b156108f257336000526003830160205260ff604060002054166108ad576105e66001600160a01b03851615156142c5565b6105f260ff821661310f565b60ff81161561089e575b5033600052600382016020526040600020600160ff198254161790556106256004830154613d59565b60048301556001600160a01b03831660009081526002830160205260409020541561088c575b6001600160a01b03831660009081526002830160205260409020805460018101811161087657600101905560405160043581527fefe08a6eacf4d0a2b6a25481fc63da431800e9e0be5192989c61047cf99f887360203392a260056004830154910190815411156106b857005b6001820160005b8154811015610403576106d2818361322f565b60018060a01b0391549060031b1c1660005260028401602052604060002054835411156107075761070290613d59565b6106bf565b50505060043560009081526002602052604090209190506107326001600160a01b03821615156142c5565b60028201805460ff60a01b198116600160a11b1782559092906001600160a01b031615610842578254600182015460405163a9059cbb60e01b81526001600160a01b0385811660048301526024820192909252929160209184916044918391600091165af191821561083657600192610807575b505b6107b3600435613e28565b0154915460408051600435815260208101949094526001600160a01b039182169084015216606082015233907f632a674945f5acd008227278ce2b5d939b1eef5bd2dc659bf678a6ab6fd1619c90608090a2005b6108289060203d60201161082f575b61082081836130ee565b810190613d41565b50846107a6565b503d610816565b6040513d6000823e3d90fd5b6000808080600185015481811561086d575b6001600160a01b03881690f115610836576001906107a8565b506108fc610854565b634e487b7160e01b600052601160045260246000fd5b6108998360018401613d68565b61064b565b60ff19166001178255836105fc565b60405162461bcd60e51b815260206004820152601a60248201527f45706865536166653a20416c726561647920617070726f7665640000000000006044820152606490fd5b60405162461bcd60e51b815260206004820152602d60248201527f45706865536166653a204e6f7420617574686f72697a656420666f7220656d6560448201526c7267656e637920756e6c6f636b60981b6064820152608490fd5b60405162461bcd60e51b815260206004820152601c60248201527f45706865536166653a2053616665206973206e6f7420616374697665000000006044820152606490fd5b60405162461bcd60e51b815260206004820152602260248201527f45706865536166653a20556e6c6f636b20416c726561647920436f6d706c6574604482015261195960f21b6064820152608490fd5b346102ee5760003660031901126102ee576102d3604051610a02816130d3565b60058152640352e302e360dc1b6020820152604051918291602083526020830190612f8d565b346102ee576020806003193601126102ee5760405190600435610a4a8361309d565b60008352818301600090526040830160009052606092838101600090528360808201528360a082015260c001600090528060005260028252604060002090610a9181614131565b9060005260038352604060002060010160405193610aae8561309d565b8354855260018401549381860194855260028101546040870190600160a01b6001900390818116835260a01c60ff169089890191610aeb8161310f565b8252610af9600385016140d9565b9260808a019384526040519485806004830190610b1591613007565b03610b2090876130ee565b60a08b01958652600501549660c08b01978852610b3c906140d9565b986040519b8c9b818d5251908c01525160808b0152511660a089015251610b628161310f565b60c08801525160e0870160e090526101408701610b7e916132c0565b9051868203605f1901610100880152610b979190612f8d565b915161012086015284820390850152610baf91612f8d565b82810360408401526102d3916132c0565b346102ee5760403660031901126102ee57610bd9612f26565b602435908115158092036102ee576001600160a01b0316908115610c4757610c0033613164565b82600052602052604060002060ff1981541660ff83161790556040519081527f17307eab39ab6107e8899845ad3d59bd9653f200f220920489ca2b5937696c3160203392a3005b604051630b61174360e31b815260048101839052602490fd5b346102ee5760003660031901126102ee57602060405160008152f35b346102ee5760003660031901126102ee5760405160007f80bb2b638cc20bc4d0a60d66940f3ab4a00c1d7b313497ca82fb0b4ab00793018054610cbe81612fcd565b80855291600191808316908115610d445750600114610ce8575b6102d3856104d4818703826130ee565b600090815292507ff4bad0a69248f59680a4f2b3000328cec71a413447c96781cfe5996daa8c456e5b828410610d2c5750505081016020016104d4826102d3610cd8565b80546020858701810191909152909301928101610d11565b8695506102d3969350602092506104d494915060ff191682840152151560051b8201019293610cd8565b346102ee5760403660031901126102ee57610d87612f3c565b60043560005260008051602061447e83398151915260205260406000209060018060a01b0316600052602052602060ff604060002054166040519015158152f35b346102ee5760403660031901126102ee576001600160a01b03610de9612f26565b1660005260066020526104036024356040600020613dd7565b346102ee5760003660031901126102ee5760008051602061443e83398151915254610e2c81614093565b9060005b818110610e4557604051806102d38582612f52565b80610e52610e6292613c12565b610e5c82866140c5565b52613d59565b610e30565b346102ee5760003660031901126102ee576020600554604051908152f35b346102ee5760203660031901126102ee576004356000526003602052604080600020600460ff825416910154825191610ebd8161310f565b82526020820152f35b346102ee576020806003193601126102ee57600435806000526002918281526040600020544211156110d35781600052828152600160ff846040600020015460a01c16610f128161310f565b0361107c576000828152838252604090208301805460ff60a01b1916600360a01b179055610f3f82613a36565b600083815284835260409020808501546001600160a01b0393919084161561104c57506000848152858252604080822080880154600190910154915163a9059cbb60e01b81526001600160a01b0386166004820152602481019290925290918391839190871690829081604481015b03925af180156108365761102f575b505b610fc884613e28565b6004549360018501809511610876578561102a927fe28be616343217c7e0ef866d21553599f8513bb0872ccee92c71033e49cc2fc996600455826000525260406000209584600188015491880154169060046040519687961698019285613dfa565b0390a2005b61104590823d841161082f5761082081836130ee565b5085610fbd565b60008080600181940154818115611073575b88881690f1610fbf576040513d6000823e3d90fd5b506108fc61105e565b6084906040519062461bcd60e51b82526004820152602a60248201527f546f6b656e536166653a207361666520616c726561647920636c61696d6564206044820152691bdc88195e1c1a5c995960b21b6064820152fd5b6064906040519062461bcd60e51b82526004820152601560248201527414d859994e88139bdd0816595d08115e1c1a5c9959605a1b6044820152fd5b346102ee5760003660031901126102ee576111286132fd565b611130613d16565b60008051602061449e833981519152600160ff198254161790557f62e78cea01bee320cd4e420270b5ea74000d11b0c9f74754ebdbfc544b05a2586020604051338152a1005b346102ee5760003660031901126102ee576020600454604051908152f35b6101003660031901126102ee576111a9612f26565b6024356001600160401b0381116102ee576111c8903690600401613262565b608435916001600160a01b03831683036102ee5760a435926001600160401b0384116102ee57366023850112156102ee578360040135611207816132a9565b9461121560405196876130ee565b8186526024602087019260051b820101903682116102ee57602401915b818310611ac05750505060c4356001600160401b0381116102ee5761125b903690600401613262565b90426044351115611a6c576001600160a01b03811615611a3e576040516323b872dd60e01b815233600482015230602482015260648035604483015260209082908160006001600160a01b0387165af1801561083657611a1f575b505b600054936112c585613d59565b6000556040516112d4816130b8565b600081526001600160a01b03851615611a065785600052600260205242604060002054116119c757611304613d16565b60008681526000805160206144be83398151915260205260409020546001600160a01b0316806119a8575b6113388661319d565b8054600101905560008781526000805160206144be8339815191526020526040812080546001600160a01b0319166001600160a01b0389169081179091558891839060008051602061445e8339815191529080a4806118f05760008051602061443e833981519152548760005260008051602061441e8339815191526020526040600020556113c687613da3565b6001600160a01b0386168103611882575b61186957843b611754575b506040516113ef8161309d565b6044358152602081019060643582526040810160018060a01b038516815260608201906001825260808301918a83528760a085015260e43560c085015289600052600260205260406000209484518655516001860155600285019160018060a01b03905116825491516114618161310f565b61146a8161310f565b6001600160a81b03199092161760a09190911b60ff60a01b16179055518051906001600160401b03821161170157600160401b8211611701576020906003850154836003870155808410611734575b500160038401600052602060002060005b838110611717575050505060a08101518051906001600160401b038211611701576114f86004850154612fcd565b601f81116116c1575b50602090601f831160011461164757928260059360c09361156498979660009261163c575b50508160011b916000199060031b1c19161760048501555b015191015585600052600260205261155e60036040600020013390613d68565b85614169565b33600052600660205261157b846040600020613dd7565b60005b85518110156115d4576115cf908560005260026020526115a581600360406000200161322f565b60018060a01b0391549060031b1c1660005260076020526115ca866040600020613dd7565b613d59565b61157e565b506040805194855260643560208601526001600160a01b039182169085015260806060850181905260443594939091169233927fbdd16b3aa0e5fa76e58d08838e79dc4017d082e838df98fc0af4ca3bbee8a05a92829161163791830190612f8d565b0390a4005b015190508d80611526565b906004850160005260206000209160005b601f19851681106116a957508360c09361156498979693600193600597601f19811610611690575b505050811b01600485015561153e565b015160001960f88460031b161c191690558d8080611680565b91926020600181928685015181550194019201611658565b6116f190600486016000526020600020601f850160051c810191602086106116f7575b601f0160051c0190613cff565b8a611501565b90915081906116e4565b634e487b7160e01b600052604160045260246000fd5b82516001600160a01b0316818301556020909201916001016114ca565b61174e906003870160005284846000209182019101613cff565b8b6114b9565b6040969594965160208180611792630a85bd0160e11b95868352336004840152600060248401528a6044840152608060648401526084830190612f8d565b038160006001600160a01b038d165af160009181611824575b506117ea57876117b9613a5e565b80519190826117e357604051633250574960e11b81526001600160a01b0383166004820152602490fd5b9050602001fd5b959694956001600160e01b0319160361180357866113e2565b604051633250574960e11b81526001600160a01b0385166004820152602490fd5b9091506020813d602011611861575b81611840602093836130ee565b810103126102ee57516001600160e01b0319811681036102ee5790896117ab565b3d9150611833565b6040516339e3563760e11b815260006004820152602490fd5b61188b8661366c565b806000198101116108765760018060a01b0387166000526000805160206143be83398151915260205260406000206000198201600052602052876040600020558760005260008051602061439e833981519152602052600019016040600020556113d7565b6001600160a01b03861681146113c6576119098161366c565b8760005260008051602061439e833981519152806020526040600020549082820361196a575b50508760005260006040812055816000526000805160206143be833981519152602052604060002090600052602052600060408120556113c6565b60008481526000805160206143be8339815191526020908152604080832086845282528083205485845281842081905583529290522055898061192f565b6119b1876139bd565b6119ba8161319d565b805460001901905561132f565b60405162461bcd60e51b8152602060048201526024808201526000805160206143fe83398151915260448201526361626c6560e01b6064820152608490fd5b604051633250574960e11b815260006004820152602490fd5b611a379060203d60201161082f5761082081836130ee565b50856112b6565b606435803410611a4e57506112b8565b60449060405190631f2dda7760e21b82526004820152346024820152fd5b60405162461bcd60e51b815260206004820152602660248201527f45706865536166653a20657870697279206d75737420626520696e207468652060448201526566757475726560d01b6064820152608490fd5b82356001600160a01b03811681036102ee57815260209283019201611232565b346102ee5760003660031901126102ee5760206040517fa49807205ce4d355092ef5a8a18f56e8913cf4a201fbe287825b095693c217758152f35b346102ee5760203660031901126102ee576020611b3e611b39612f26565b61366c565b604051908152f35b346102ee5760203660031901126102ee576020611b64600435613a36565b6040516001600160a01b039091168152f35b346102ee5760003660031901126102ee57602060ff60008051602061449e83398151915254166040519015158152f35b346102ee5760003660031901126102ee577f00000000000000000000000000000000000000000000000000000000000000006001600160a01b03163003611c115760206040517f360894a13ba1a3210667c828492db98dca3e2076cc3735a920a3ca505d382bbc8152f35b60405163703e46dd60e11b8152600490fd5b346102ee5760203660031901126102ee576020611b3e600435613c12565b60403660031901126102ee57611c55612f26565b6024356001600160401b0381116102ee57611c74903690600401613262565b906001600160a01b03907f00000000000000000000000000000000000000000000000000000000000000008216308114908115611e7a575b50611c11573360009081527fab71e3f32666744d246edff3f96e4bdafee2e9867098cdd118a979a7464786a860209081526040909120549092907f189ab7a9244df0848122154315af71fe140f3db0fe014031783b0946b8c9d2e39060ff1615611e5c57508116916040516352d1902d60e01b81528181600481875afa60009181611e2d575b50611d5057604051634c9c8ce360e01b815260048101859052602490fd5b9284937f360894a13ba1a3210667c828492db98dca3e2076cc3735a920a3ca505d382bbc90818103611e155750833b15611dfc5780546001600160a01b03191682179055604051907fbc7cd75a20ee27fd9adebab32041f755214dbc6bffa90cc0225b39da2e5c2d3b600080a2835115611de25750600083819261040395519101845af4611ddc613a5e565b91613c5b565b9250505034611ded57005b63b398979f60e01b8152600490fd5b604051634c9c8ce360e01b815260048101839052602490fd5b60249060405190632a87526960e21b82526004820152fd5b9091508281813d8311611e55575b611e4581836130ee565b810103126102ee57519086611d32565b503d611e3b565b6044906040519063e2517d3f60e01b82523360048301526024820152fd5b9050827f360894a13ba1a3210667c828492db98dca3e2076cc3735a920a3ca505d382bbc5416141584611cac565b346102ee5760003660031901126102ee576020600054604051908152f35b346102ee5760403660031901126102ee57611edf612f26565b611ee7612f3c565b907ff0c57e16840df040f15088dc2f81fe391c3923bec73e23a9662efc9c229c6a009182546001600160401b03811691821580612363575b60018094149081612359575b159081612350575b5061233e57826001600160401b0319831617855560ff8260401c161561231f575b60405193611f61856130d3565b6008855260209467457068655361666560c01b8682015260405190611f85826130d3565b600382526245505360e81b87830152611f9c613cbe565b611fa4613cbe565b8051906001600160401b038211611701578190611fcf6000805160206143de83398151915254612fcd565b601f81116122c4575b508890601f83116001146122255760009261221a575b5050600019600383901b1c191690861b176000805160206143de833981519152555b80516001600160401b038111611701577f80bb2b638cc20bc4d0a60d66940f3ab4a00c1d7b313497ca82fb0b4ab00793019161204c8354612fcd565b601f81116121cd575b508790601f831160011461213c5792826120e4936120ea969360ff999896600092612131575b5050600019600383901b1c191690891b1790555b612097613cbe565b61209f613cbe565b6120a7613cbe565b60008051602061449e833981519152861981541690556120c5613cbe565b6120cd613cbe565b6120d5613cbe565b6120de8161338c565b5061341a565b506134ca565b5060401c16156120f657005b7fc7f505b2f371ae2175ee4913f4499e1f2633a7b5936321eed1cdaeb6115181d29268ff0000000000000000198154169055604051908152a1005b015190508c8061207b565b879291601f19831691856000527ff4bad0a69248f59680a4f2b3000328cec71a413447c96781cfe5996daa8c456e9260005b8c8282106121b7575050926120e4959285926120ea999660ff9c9b99961061219e575b505050811b01905561208f565b015160001960f88460031b161c191690558c8080612191565b8385015186558c9790950194938401930161216e565b61221490846000527ff4bad0a69248f59680a4f2b3000328cec71a413447c96781cfe5996daa8c456e601f850160051c8101918b86106116f757601f0160051c0190613cff565b89612055565b015190508980611fee565b908893506000805160206143de8339815191526000527f37c58c799b6609234b945e882912ee9ad34948a1dfaa20a97485e1a7752bbf819160005b8b601f19861682106122ae57505083601f19811610612295575b505050811b016000805160206143de83398151915255612010565b015160001960f88460031b161c1916905589808061227a565b8284015185558b96909401939283019201612260565b612319906000805160206143de8339815191526000527f37c58c799b6609234b945e882912ee9ad34948a1dfaa20a97485e1a7752bbf81601f850160051c8101918c86106116f757601f0160051c0190613cff565b8a611fd8565b68ffffffffffffffffff19821668010000000000000001178555611f54565b60405163f92ee8a960e01b8152600490fd5b90501586611f33565b303b159150611f2b565b5060ff8260401c1615611f1f565b346102ee5760403660031901126102ee5761238a612f26565b6001600160a01b03166000908152600660205260409020805460243591908210156102ee576020916123bb9161322f565b90546040519160031b1c8152f35b346102ee576020806003193601126102ee57600435908160005260028152604060002054421061270a576123fb613d16565b60008281526000805160206144be8339815191528083526040909120546001600160a01b0390811691903315159081612658575b5050811580159182612639575b85600052845260406000206bffffffffffffffffffffffff60a01b81541690558460008460008051602061445e8339815191528280a41561257457505060008051602061443e833981519152548260005260008051602061441e83398151915282526040600020556124ad82613da3565b60008051602061443e83398151915291825460001992838201918211610876578260005260008051602061441e833981519152908181526124f3604060002054936131d6565b90549060031b1c61252081612507866131d6565b90919082549060031b91821b91600019901b1916179055565b60005252604060002055600052600060408120558154801561255e57019061255b61254a836131d6565b8154906000199060031b1b19169055565b55005b634e487b7160e01b600052603160045260246000fd5b61257f575b506124ad565b6125888161366c565b908360005260008051602061439e833981519152808452604060002054908382036125e7575b505083600052600060408120556000526000805160206143be833981519152825260406000209060005281526000604081205582612579565b826000526000805160206143be833981519152808652604060002085600052865260406000205490846000528652604060002083600052865280604060002055600052845260406000205584806125ae565b612642866139bd565b61264b8461319d565b805460001901905561243c565b816126a9575b501561266b57848061242f565b83826126895760249060405190637e27328960e01b82526004820152fd5b60405163177e802f60e01b81523360048201526024810191909152604490fd5b338414915081156126ea575b81156126c3575b508561265e565b9050846000526000805160206144de833981519152845233906040600020541614856126bc565b90506126f583613164565b33600052845260ff60406000205416906126b5565b6084906040519062461bcd60e51b825260048201526024808201526000805160206143fe83398151915260448201526361626c6560e01b6064820152fd5b346102ee576104036127593661312f565b9060405192612767846130b8565b6000845261053c8383836136a1565b346102ee5760403660031901126102ee5761278f612f26565b6001600160a01b03166000908152600760205260409020805460243591908210156102ee576020916123bb9161322f565b346102ee576020806003193601126102ee576001600160a01b036127e2612f26565b1660005260078152604060002090604051908181845491828152019360005281600020916000905b828210612821576102d3856102c7818903826130ee565b83548652948501946001938401939091019061280a565b346102ee5760003660031901126102ee576128516132fd565b60008051602061449e833981519152805460ff81161561289d5760ff191690557f5db9ee0a495bf2e6ff9c91a7834c1ba4fdd244a5e8aa4e537bd38aeae4b073aa6020604051338152a1005b604051638dfc202b60e01b8152600490fd5b346102ee5760403660031901126102ee576128c8612f3c565b336001600160a01b038216036128e457610403906004356135e9565b60405163334bd91960e11b8152600490fd5b346102ee5760403660031901126102ee576020611b3e612914612f26565b60243590613ba5565b346102ee5760403660031901126102ee5761040360043561293c612f3c565b908060005260008051602061447e833981519152602052612964600160406000200154613359565b613574565b346102ee5760203660031901126102ee5760043560005260008051602061447e8339815191526020526020600160406000200154604051908152f35b346102ee576104036129b63661312f565b916136a1565b346102ee5760003660031901126102ee57602060008051602061443e83398151915254604051908152f35b346102ee5760203660031901126102ee57600435600052600260205260406000208054600182015491612a7a60028201549160ff8360a01c16600560405192612a3e84612a378160048501613007565b03856130ee565b0154936040519687968752602087015260018060a01b03166040860152612a648161310f565b606085015260c0608085015260c0840190612f8d565b9060a08301520390f35b346102ee5760403660031901126102ee57612a9d612f26565b602435612aa9816139ee565b33151580612b58575b80612b38575b612b20576001600160a01b039283169282918491167f8c5be1e5ebec7d5bd14f71427d1e84f3dd0314c0f7b2291e5b200ac8c7c3b925600080a460009081526000805160206144de8339815191526020526040902080546001600160a01b0319169091179055005b60405163a9fbf51f60e01b8152336004820152602490fd5b50612b4281613164565b3360005260205260ff6040600020541615612ab8565b506001600160a01b038116331415612ab2565b346102ee5760203660031901126102ee57600435612b88816139ee565b506000526000805160206144de833981519152602052602060018060a01b0360406000205416604051908152f35b346102ee5760003660031901126102ee5760405160006000805160206143de8339815191528054612be681612fcd565b80855291600191808316908115610d445750600114612c0f576102d3856104d4818703826130ee565b600090815292507f37c58c799b6609234b945e882912ee9ad34948a1dfaa20a97485e1a7752bbf815b828410612c535750505081016020016104d4826102d3610cd8565b80546020858701810191909152909301928101612c38565b346102ee5760403660031901126102ee57600435612c87612f3c565b90612c9181613a36565b6001600160a01b03903390821603612dea57816000526002926020848152604060002054421115612db25783600052848152600160ff866040600020015460a01c16612cdc8161310f565b03612d5b57600084815285825260409020808601805460ff60a01b198116600360a01b1790915584161561104c57506000848152858252604080822080880154600190910154915163a9059cbb60e01b81526001600160a01b038616600482015260248101929092529091839183919087169082908160448101610fae565b6084906040519062461bcd60e51b82526004820152602a60248201527f546f6b656e536166653a205361666520616c726561647920636c61696d6564206044820152691bdc88195e1c1a5c995960b21b6064820152fd5b6064906040519062461bcd60e51b82526004820152601160248201527014d859994e88139bdd08115e1c1a5c9959607a1b6044820152fd5b60405162461bcd60e51b81526020600482015260146024820152732a37b5b2b729b0b3329d102737ba1027bbb732b960611b6044820152606490fd5b346102ee5760203660031901126102ee57612e3f612f26565b612e488161366c565b612e5181614093565b9160005b828110612e6a57604051806102d38682612f52565b80612e78612e829284613ba5565b610e5c82876140c5565b612e55565b346102ee5760203660031901126102ee576004359063ffffffff60e01b82168092036102ee57602091637965db0b60e01b8114908115612ec9575b5015158152f35b63780e9d6360e01b811491508115612ee3575b5083612ec2565b6380ac58cd60e01b811491508115612f15575b8115612f04575b5083612edc565b6301ffc9a760e01b14905083612efd565b635b5e139f60e01b81149150612ef6565b600435906001600160a01b03821682036102ee57565b602435906001600160a01b03821682036102ee57565b6020908160408183019282815285518094520193019160005b828110612f79575050505090565b835185529381019392810192600101612f6b565b919082519283825260005b848110612fb9575050826000602080949584010152601f8019910116010190565b602081830181015184830182015201612f98565b90600182811c92168015612ffd575b6020831014612fe757565b634e487b7160e01b600052602260045260246000fd5b91607f1691612fdc565b906000929180549161301883612fcd565b91828252600193848116908160001461307a575060011461303a575b50505050565b90919394506000526020928360002092846000945b838610613066575050505001019038808080613034565b80548587018301529401938590820161304f565b9294505050602093945060ff191683830152151560051b01019038808080613034565b60e081019081106001600160401b0382111761170157604052565b602081019081106001600160401b0382111761170157604052565b604081019081106001600160401b0382111761170157604052565b90601f801991011681019081106001600160401b0382111761170157604052565b6004111561311957565b634e487b7160e01b600052602160045260246000fd5b60609060031901126102ee576001600160a01b039060043582811681036102ee579160243590811681036102ee579060443590565b6001600160a01b031660009081527f80bb2b638cc20bc4d0a60d66940f3ab4a00c1d7b313497ca82fb0b4ab00793056020526040902090565b6001600160a01b031660009081527f80bb2b638cc20bc4d0a60d66940f3ab4a00c1d7b313497ca82fb0b4ab00793036020526040902090565b60008051602061443e8339815191528054821015613219576000527fa42f15e5d656f8155fd7419d740a6073999f19cd6e061449ce4a257150545bf20190600090565b634e487b7160e01b600052603260045260246000fd5b80548210156132195760005260206000200190600090565b6001600160401b03811161170157601f01601f191660200190565b81601f820112156102ee5780359061327982613247565b9261328760405194856130ee565b828452602083830101116102ee57816000926020809301838601378301015290565b6001600160401b0381116117015760051b60200190565b90815180825260208080930193019160005b8281106132e0575050505090565b83516001600160a01b0316855293810193928101926001016132d2565b3360009081527f75442b0a96088b5456bc4ed01394c96a4feec0f883c9494257d76b96ab1c9b6b60205260409020547f65d7a28e3265b37a6474929f336521b332c1681b933f6cb9f3376673440d862a9060ff1615611e5c5750565b8060005260008051602061447e83398151915260205260406000203360005260205260ff6040600020541615611e5c5750565b6001600160a01b031660008181527fb7db2dd08fcb62d0c9e08c51941cae53c267786a0b75803fb7960902fc8ef97d602052604081205490919060008051602061447e8339815191529060ff16613415578280526020526040822081835260205260408220600160ff19825416179055339160008051602061437e8339815191528180a4600190565b505090565b6001600160a01b031660008181527fab71e3f32666744d246edff3f96e4bdafee2e9867098cdd118a979a7464786a860205260408120549091907f189ab7a9244df0848122154315af71fe140f3db0fe014031783b0946b8c9d2e39060008051602061447e8339815191529060ff166134c4578184526020526040832082845260205260408320600160ff1982541617905560008051602061437e833981519152339380a4600190565b50505090565b6001600160a01b031660008181527f549fe2656c81d2947b3b913f0a53b9ea86c71e049f3a1b8aa23c09a8a05cb8d460205260408120549091907f9f2df0fed2c77648de5860a4cc508cd0818c85b8b8a1ab4ceeef8d981c8956a69060008051602061447e8339815191529060ff166134c4578184526020526040832082845260205260408320600160ff1982541617905560008051602061437e833981519152339380a4600190565b9060009180835260008051602061447e83398151915280602052604084209260018060a01b03169283855260205260ff604085205416156000146134c4578184526020526040832082845260205260408320600160ff1982541617905560008051602061437e833981519152339380a4600190565b9060009180835260008051602061447e83398151915280602052604084209260018060a01b03169283855260205260ff6040852054166000146134c457818452602052604083208284526020526040832060ff1981541690557ff6391f5c32d9c69d2a47ea670b442974b53935d1edc7fd64eb21e047a839171b339380a4600190565b6001600160a01b03811615613688576136849061319d565b5490565b6040516322718ad960e21b815260006004820152602490fd5b6001600160a01b0382811693918415611a065760009483865260209560028752604096878220544210613980576136d6613d16565b8582526000805160206144be8339815191529687825285898420541697331515806138e6575b5088159081156138c7575b6137108361319d565b80546001019055888552835289842080546001600160a01b0319168617905587858a60008051602061445e8339815191528780a4156138225760008051602061443e8339815191525487845260008051602061441e83398151915283528984205561377a87613da3565b8388036137b6575b5050505016928383036137955750505050565b6064945051926364283d7b60e01b8452600484015260248301526044820152fd5b6137bf9061366c565b60001981019390841161380e57829160008051602061439e833981519152918a94526000805160206143be83398151915281528383208584528152878484205587835252205538808080613782565b634e487b7160e01b83526011600452602483fd5b87841461377a576138328861366c565b87845260008051602061439e8339815191528084528a85205490828203613884575b5050878452838a8120558884526000805160206143be83398151915283528984209084528252828981205561377a565b8a86526000805160206143be8339815191528086528c872084885286528c872054908c885286528c87208388528652808d882055865284528a8520553880613854565b6138d0896139bd565b6138d98a61319d565b8054600019019055613707565b80613933575b156138f757386136fc565b89888a613914576024915190637e27328960e01b82526004820152fd5b905163177e802f60e01b81523360048201526024810191909152604490fd5b503389148015613965575b806138ec57508784526000805160206144de833981519152835233878b86205416146138ec565b5061396f89613164565b338552835260ff8a8520541661393e565b60849088519062461bcd60e51b825260048201526024808201526000805160206143fe83398151915260448201526361626c6560e01b6064820152fd5b6000526000805160206144de83398151915260205260406000206bffffffffffffffffffffffff60a01b8154169055565b60008181526000805160206144be83398151915260205260409020546001600160a01b0316908115613a1e575090565b60249060405190637e27328960e01b82526004820152fd5b60009081526000805160206144be83398151915260205260409020546001600160a01b031690565b3d15613a89573d90613a6f82613247565b91613a7d60405193846130ee565b82523d6000602084013e565b606090565b9190803b613a9c5750505050565b613ade60018060a01b0380921694604051938493630a85bd0160e11b968786523360048701521660248501526044840152608060648401526084830190612f8d565b03906020816000938185885af190829082613b56575b5050613b255782613b03613a5e565b80519190826117e357604051633250574960e11b815260048101839052602490fd5b6001600160e01b03191603613b3e575038808080613034565b60249060405190633250574960e11b82526004820152fd5b909192506020813d8211613b9d575b81613b72602093836130ee565b81010312613b995751906001600160e01b031982168203613b965750903880613af4565b80fd5b5080fd5b3d9150613b65565b613bae8161366c565b821015613be75760018060a01b03166000526000805160206143be83398151915260205260406000209060005260205260406000205490565b60405163295f44f760e21b81526001600160a01b039190911660048201526024810191909152604490fd5b60008051602061443e83398151915254811015613c3c57613c32906131d6565b90549060031b1c90565b6044906040519063295f44f760e21b8252600060048301526024820152fd5b90613c825750805115613c7057805190602001fd5b604051630a12f52160e11b8152600490fd5b81511580613cb5575b613c93575090565b604051639996b31560e01b81526001600160a01b039091166004820152602490fd5b50803b15613c8b565b60ff7ff0c57e16840df040f15088dc2f81fe391c3923bec73e23a9662efc9c229c6a005460401c1615613ced57565b604051631afcd79f60e31b8152600490fd5b818110613d0a575050565b60008155600101613cff565b60ff60008051602061449e8339815191525416613d2f57565b60405163d93c066560e01b8152600490fd5b908160209103126102ee575180151581036102ee5790565b60001981146108765760010190565b8054600160401b81101561170157613d859160018201815561322f565b819291549060031b9160018060a01b03809116831b921b1916179055565b60008051602061443e83398151915290815491600160401b8310156117015782612507916001613dd5950190556131d6565b565b90815491600160401b8310156117015782612507916001613dd59501815561322f565b9092608092613e2595948352602083015260018060a01b031660408201528160608201520190613007565b90565b600081815260206002815260409182812054421061405657613e48613d16565b8381526000805160206144be833981519152808352838220546001600160a01b03168015939184159081614037575b878552835285842080546001600160a01b031916905586848360008051602061445e8339815191528280a48415613f8d57505060008051602061443e8339815191525485835260008051602061441e833981519152825284832055613edb85613da3565b60008051602061443e8339815191529182546000199283820191821161380e5787835260008051602061441e83398151915290818152613f1e88852054936131d6565b90549060031b1c613f3281612507866131d6565b8452528582205585815280858120558254908115613f7957500190613f5961254a836131d6565b55613f62575050565b602492505190637e27328960e01b82526004820152fd5b634e487b7160e01b81526031600452602490fd5b613f98575b50613edb565b613fa18161366c565b9086845260008051602061439e8339815191528084528685205490838203613ff4575b5050868452838681205583526000805160206143be83398151915282528483209083528152818481205538613f92565b8286526000805160206143be8339815191528086528887208588528652888720549084885286528887208388528652808988205586528452868520553880613fc4565b614040886139bd565b6140498361319d565b8054600019019055613e77565b50608491519062461bcd60e51b825260048201526024808201526000805160206143fe83398151915260448201526361626c6560e01b6064820152fd5b9061409d826132a9565b6140aa60405191826130ee565b82815280926140bb601f19916132a9565b0190602036910137565b80518210156132195760209160051b010190565b9060405191828154918282526020928383019160005283600020936000905b82821061410e57505050613dd5925003836130ee565b85546001600160a01b0316845260019586019588955093810193909101906140f8565b6000526001602052614150614157604060002060405192838092613007565b03826130ee565b6000604051614165816130b8565b5290565b919060009280845260019360209285845260408220918151916001600160401b0383116142b15761419a8454612fcd565b601f8111614283575b508591601f84116001146142045796977ff8e1a15aba9398e019f0b49df1a4fde98ee17ae345cb5f6b5e2c27f5033e8ce797928492836141f9575b50501b916000199060031b1c19161790555b604051908152a1565b0151925038806141de565b90979291601f198316858352878320925b81811061426e575098837ff8e1a15aba9398e019f0b49df1a4fde98ee17ae345cb5f6b5e2c27f5033e8ce7999a10614255575b505050811b0190556141f0565b015160001960f88460031b161c19169055388080614248565b8a830151845592850192918801918801614215565b6142ab90858452878420601f860160051c8101918987106116f757601f0160051c0190613cff565b386141a3565b634e487b7160e01b82526041600452602482fd5b156142cc57565b60405162461bcd60e51b815260206004820152602360248201527f45706865536166653a20496e76616c696420726563697069656e74206164647260448201526265737360e81b6064820152608490fd5b600052600260205261433560036040600020016140d9565b9060005b8251811015614375576001600160a01b038061435583866140c5565b51169083161461436d5761436890613d59565b614339565b505050600190565b50505060009056fe2f8788117e7eff1d82e926ec794901d17c78024a50270940304540a733656f0d645e039705490088daad89bae25049a34f4a9072d398537b1ab2425f24cbed01645e039705490088daad89bae25049a34f4a9072d398537b1ab2425f24cbed0080bb2b638cc20bc4d0a60d66940f3ab4a00c1d7b313497ca82fb0b4ab0079300546f6b656e536166653a2053616665204e4654206e6f74207472616e73666572645e039705490088daad89bae25049a34f4a9072d398537b1ab2425f24cbed03645e039705490088daad89bae25049a34f4a9072d398537b1ab2425f24cbed02ddf252ad1be2c89b69c2b068fc378daa952ba7f163c4a11628f55a4df523b3ef02dd7bc7dec4dceedda775e58dd541e08a116c6c53815c0bd028192f7b626800cd5ed15c6e187e77e9aee88184c21f4f2182ab5827cb3b7e07fbedcd63f0330080bb2b638cc20bc4d0a60d66940f3ab4a00c1d7b313497ca82fb0b4ab007930280bb2b638cc20bc4d0a60d66940f3ab4a00c1d7b313497ca82fb0b4ab0079304a26469706673582212207aba93160b245cdc96507253233eb6dc8901358f65842a0269e742bc7e48705564736f6c63430008140033",
  "linkReferences": {},
  "deployedLinkReferences": {}
}